{
  "contractName": "Voting",
  "abi": [
    {
      "inputs": [],
      "stateMutability": "nonpayable",
      "type": "constructor"
    },
    {
      "inputs": [
        {
          "internalType": "uint256",
          "name": "",
          "type": "uint256"
        }
      ],
      "name": "candidates",
      "outputs": [
        {
          "internalType": "string",
          "name": "name",
          "type": "string"
        },
        {
          "internalType": "uint256",
          "name": "voteCount",
          "type": "uint256"
        }
      ],
      "stateMutability": "view",
      "type": "function",
      "constant": true
    },
    {
      "inputs": [
        {
          "internalType": "uint256",
          "name": "",
          "type": "uint256"
        }
      ],
      "name": "voters",
      "outputs": [
        {
          "internalType": "address",
          "name": "voterAddress",
          "type": "address"
        },
        {
          "internalType": "bool",
          "name": "voted",
          "type": "bool"
        },
        {
          "internalType": "string",
          "name": "evuid",
          "type": "string"
        },
        {
          "internalType": "string",
          "name": "candidateName",
          "type": "string"
        }
      ],
      "stateMutability": "view",
      "type": "function",
      "constant": true
    },
    {
      "inputs": [
        {
          "internalType": "string",
          "name": "evuid",
          "type": "string"
        }
      ],
      "name": "registerVoter",
      "outputs": [],
      "stateMutability": "nonpayable",
      "type": "function"
    },
    {
      "inputs": [
        {
          "internalType": "address",
          "name": "_voterAddress",
          "type": "address"
        }
      ],
      "name": "getVoterByAddress",
      "outputs": [
        {
          "components": [
            {
              "internalType": "address",
              "name": "voterAddress",
              "type": "address"
            },
            {
              "internalType": "bool",
              "name": "voted",
              "type": "bool"
            },
            {
              "internalType": "string",
              "name": "evuid",
              "type": "string"
            },
            {
              "internalType": "string",
              "name": "candidateName",
              "type": "string"
            }
          ],
          "internalType": "struct Voting.Voter",
          "name": "",
          "type": "tuple"
        }
      ],
      "stateMutability": "view",
      "type": "function",
      "constant": true
    },
    {
      "inputs": [
        {
          "internalType": "string",
          "name": "candidate",
          "type": "string"
        }
      ],
      "name": "voteForCandidate",
      "outputs": [],
      "stateMutability": "nonpayable",
      "type": "function"
    },
    {
      "inputs": [],
      "name": "getCandidates",
      "outputs": [
        {
          "components": [
            {
              "internalType": "string",
              "name": "name",
              "type": "string"
            },
            {
              "internalType": "uint256",
              "name": "voteCount",
              "type": "uint256"
            }
          ],
          "internalType": "struct Voting.Candidate[]",
          "name": "",
          "type": "tuple[]"
        }
      ],
      "stateMutability": "view",
      "type": "function",
      "constant": true
    },
    {
      "inputs": [],
      "name": "getVoters",
      "outputs": [
        {
          "components": [
            {
              "internalType": "address",
              "name": "voterAddress",
              "type": "address"
            },
            {
              "internalType": "bool",
              "name": "voted",
              "type": "bool"
            },
            {
              "internalType": "string",
              "name": "evuid",
              "type": "string"
            },
            {
              "internalType": "string",
              "name": "candidateName",
              "type": "string"
            }
          ],
          "internalType": "struct Voting.Voter[]",
          "name": "",
          "type": "tuple[]"
        }
      ],
      "stateMutability": "view",
      "type": "function",
      "constant": true
    }
  ],
  "bytecode": "0x60806040523480156200001157600080fd5b5060006040518060a001604052806040518060400160405280600881526020017f4a6f686e20446f6500000000000000000000000000000000000000000000000081525081526020016040518060400160405280600a81526020017f4a616e6520536d6974680000000000000000000000000000000000000000000081525081526020016040518060400160405280600f81526020017f4d69636861656c204a6f686e736f6e000000000000000000000000000000000081525081526020016040518060400160405280600c81526020017f456d696c792057696c736f6e000000000000000000000000000000000000000081525081526020016040518060400160405280600b81526020017f44617669642042726f776e000000000000000000000000000000000000000000815250815250905060005b60058110156200021357600160405180604001604052808484600581106200019a577f4e487b7100000000000000000000000000000000000000000000000000000000600052603260045260246000fd5b60200201518152602001600081525090806001815401808255809150506001900390600052602060002090600202016000909190919091506000820151816000019080519060200190620001f09291906200021b565b5060208201518160010155505080806200020a906200030b565b91505062000149565b5050620003b7565b8280546200022990620002d5565b90600052602060002090601f0160209004810192826200024d576000855562000299565b82601f106200026857805160ff191683800117855562000299565b8280016001018555821562000299579182015b82811115620002985782518255916020019190600101906200027b565b5b509050620002a89190620002ac565b5090565b5b80821115620002c7576000816000905550600101620002ad565b5090565b6000819050919050565b60006002820490506001821680620002ee57607f821691505b6020821081141562000305576200030462000388565b5b50919050565b60006200031882620002cb565b91507fffffffffffffffffffffffffffffffffffffffffffffffffffffffffffffffff8214156200034e576200034d62000359565b5b600182019050919050565b7f4e487b7100000000000000000000000000000000000000000000000000000000600052601160045260246000fd5b7f4e487b7100000000000000000000000000000000000000000000000000000000600052602260045260246000fd5b611d0780620003c76000396000f3fe608060405234801561001057600080fd5b506004361061007d5760003560e01c80636428a4861161005b5780636428a48614610101578063cdd722531461011d578063da58c7d91461013b578063e89927ef1461016e5761007d565b806306a49fce146100825780633477ee2e146100a05780634bdd7585146100d1575b600080fd5b61008a61018a565b60405161009791906118b9565b60405180910390f35b6100ba60048036038101906100b591906112bc565b610285565b6040516100c89291906118fd565b60405180910390f35b6100eb60048036038101906100e6919061124e565b610341565b6040516100f891906119ed565b60405180910390f35b61011b60048036038101906101169190611277565b61063c565b005b61012561096d565b60405161013291906118db565b60405180910390f35b610155600480360381019061015091906112bc565b610b61565b6040516101659493929190611866565b60405180910390f35b61018860048036038101906101839190611277565b610cde565b005b60606001805480602002602001604051908101604052809291908181526020016000905b8282101561027c57838290600052602060002090600202016040518060400160405290816000820180546101e190611bb9565b80601f016020809104026020016040519081016040528092919081815260200182805461020d90611bb9565b801561025a5780601f1061022f5761010080835404028352916020019161025a565b820191906000526020600020905b81548152906001019060200180831161023d57829003601f168201915b50505050508152602001600182015481525050815260200190600101906101ae565b50505050905090565b6001818154811061029557600080fd5b90600052602060002090600202016000915090508060000180546102b890611bb9565b80601f01602080910402602001604051908101604052809291908181526020018280546102e490611bb9565b80156103315780601f1061030657610100808354040283529160200191610331565b820191906000526020600020905b81548152906001019060200180831161031457829003601f168201915b5050505050908060010154905082565b610349611071565b60005b6000805490508110156105fb578273ffffffffffffffffffffffffffffffffffffffff16600082815481106103aa577f4e487b7100000000000000000000000000000000000000000000000000000000600052603260045260246000fd5b906000526020600020906003020160000160009054906101000a900473ffffffffffffffffffffffffffffffffffffffff1673ffffffffffffffffffffffffffffffffffffffff1614156105e85760008181548110610432577f4e487b7100000000000000000000000000000000000000000000000000000000600052603260045260246000fd5b90600052602060002090600302016040518060800160405290816000820160009054906101000a900473ffffffffffffffffffffffffffffffffffffffff1673ffffffffffffffffffffffffffffffffffffffff1673ffffffffffffffffffffffffffffffffffffffff1681526020016000820160149054906101000a900460ff161515151581526020016001820180546104cc90611bb9565b80601f01602080910402602001604051908101604052809291908181526020018280546104f890611bb9565b80156105455780601f1061051a57610100808354040283529160200191610545565b820191906000526020600020905b81548152906001019060200180831161052857829003601f168201915b5050505050815260200160028201805461055e90611bb9565b80601f016020809104026020016040519081016040528092919081815260200182805461058a90611bb9565b80156105d75780601f106105ac576101008083540402835291602001916105d7565b820191906000526020600020905b8154815290600101906020018083116105ba57829003601f168201915b505050505081525050915050610637565b80806105f390611beb565b91505061034c565b506040517f08c379a000000000000000000000000000000000000000000000000000000000815260040161062e906119cd565b60405180910390fd5b919050565b60008282905011610682576040517f08c379a00000000000000000000000000000000000000000000000000000000081526004016106799061192d565b60405180910390fd5b6002828260405161069492919061184d565b908152602001604051809103902060009054906101000a900460ff16156106f0576040517f08c379a00000000000000000000000000000000000000000000000000000000081526004016106e7906119ad565b60405180910390fd5b600360003373ffffffffffffffffffffffffffffffffffffffff1673ffffffffffffffffffffffffffffffffffffffff16815260200190815260200160002060009054906101000a900460ff161561077d576040517f08c379a00000000000000000000000000000000000000000000000000000000081526004016107749061198d565b60405180910390fd5b60016002838360405161079192919061184d565b908152602001604051809103902060006101000a81548160ff0219169083151502179055506001600360003373ffffffffffffffffffffffffffffffffffffffff1673ffffffffffffffffffffffffffffffffffffffff16815260200190815260200160002060006101000a81548160ff021916908315150217905550600060405180608001604052803373ffffffffffffffffffffffffffffffffffffffff16815260200160001515815260200184848080601f016020809104026020016040519081016040528093929190818152602001838380828437600081840152601f19601f82011690508083019250505050505050815260200160405180602001604052806000815250815250908060018154018082558091505060019003906000526020600020906003020160009091909190915060008201518160000160006101000a81548173ffffffffffffffffffffffffffffffffffffffff021916908373ffffffffffffffffffffffffffffffffffffffff16021790555060208201518160000160146101000a81548160ff02191690831515021790555060408201518160010190805190602001906109499291906110b1565b5060608201518160020190805190602001906109669291906110b1565b5050505050565b60606000805480602002602001604051908101604052809291908181526020016000905b82821015610b5857838290600052602060002090600302016040518060800160405290816000820160009054906101000a900473ffffffffffffffffffffffffffffffffffffffff1673ffffffffffffffffffffffffffffffffffffffff1673ffffffffffffffffffffffffffffffffffffffff1681526020016000820160149054906101000a900460ff16151515158152602001600182018054610a3590611bb9565b80601f0160208091040260200160405190810160405280929190818152602001828054610a6190611bb9565b8015610aae5780601f10610a8357610100808354040283529160200191610aae565b820191906000526020600020905b815481529060010190602001808311610a9157829003601f168201915b50505050508152602001600282018054610ac790611bb9565b80601f0160208091040260200160405190810160405280929190818152602001828054610af390611bb9565b8015610b405780601f10610b1557610100808354040283529160200191610b40565b820191906000526020600020905b815481529060010190602001808311610b2357829003601f168201915b50505050508152505081526020019060010190610991565b50505050905090565b60008181548110610b7157600080fd5b90600052602060002090600302016000915090508060000160009054906101000a900473ffffffffffffffffffffffffffffffffffffffff16908060000160149054906101000a900460ff1690806001018054610bcd90611bb9565b80601f0160208091040260200160405190810160405280929190818152602001828054610bf990611bb9565b8015610c465780601f10610c1b57610100808354040283529160200191610c46565b820191906000526020600020905b815481529060010190602001808311610c2957829003601f168201915b505050505090806002018054610c5b90611bb9565b80601f0160208091040260200160405190810160405280929190818152602001828054610c8790611bb9565b8015610cd45780601f10610ca957610100808354040283529160200191610cd4565b820191906000526020600020905b815481529060010190602001808311610cb757829003601f168201915b5050505050905084565b6000610ce933610341565b9050600073ffffffffffffffffffffffffffffffffffffffff16816000015173ffffffffffffffffffffffffffffffffffffffff161415610d5f576040517f08c379a0000000000000000000000000000000000000000000000000000000008152600401610d56906119cd565b60405180910390fd5b806020015115610da4576040517f08c379a0000000000000000000000000000000000000000000000000000000008152600401610d9b9061194d565b60405180910390fd5b60005b600080549050811015610f26573373ffffffffffffffffffffffffffffffffffffffff1660008281548110610e05577f4e487b7100000000000000000000000000000000000000000000000000000000600052603260045260246000fd5b906000526020600020906003020160000160009054906101000a900473ffffffffffffffffffffffffffffffffffffffff1673ffffffffffffffffffffffffffffffffffffffff161415610f1357600160008281548110610e8f577f4e487b7100000000000000000000000000000000000000000000000000000000600052603260045260246000fd5b906000526020600020906003020160000160146101000a81548160ff021916908315150217905550838360008381548110610ef3577f4e487b7100000000000000000000000000000000000000000000000000000000600052603260045260246000fd5b90600052602060002090600302016002019190610f11929190611137565b505b8080610f1e90611beb565b915050610da7565b5060005b600180549050811015611031578383604051610f4792919061181d565b604051809103902060018281548110610f89577f4e487b7100000000000000000000000000000000000000000000000000000000600052603260045260246000fd5b9060005260206000209060020201600001604051610fa79190611836565b6040518091039020141561101e576001808281548110610ff0577f4e487b7100000000000000000000000000000000000000000000000000000000600052603260045260246000fd5b906000526020600020906002020160010160008282546110109190611ad9565b92505081905550505061106d565b808061102990611beb565b915050610f2a565b506040517f08c379a00000000000000000000000000000000000000000000000000000000081526004016110649061196d565b60405180910390fd5b5050565b6040518060800160405280600073ffffffffffffffffffffffffffffffffffffffff16815260200160001515815260200160608152602001606081525090565b8280546110bd90611bb9565b90600052602060002090601f0160209004810192826110df5760008555611126565b82601f106110f857805160ff1916838001178555611126565b82800160010185558215611126579182015b8281111561112557825182559160200191906001019061110a565b5b50905061113391906111bd565b5090565b82805461114390611bb9565b90600052602060002090601f01602090048101928261116557600085556111ac565b82601f1061117e57803560ff19168380011785556111ac565b828001600101855582156111ac579182015b828111156111ab578235825591602001919060010190611190565b5b5090506111b991906111bd565b5090565b5b808211156111d65760008160009055506001016111be565b5090565b6000813590506111e981611ca3565b92915050565b60008083601f84011261120157600080fd5b8235905067ffffffffffffffff81111561121a57600080fd5b60208301915083600182028301111561123257600080fd5b9250929050565b60008135905061124881611cba565b92915050565b60006020828403121561126057600080fd5b600061126e848285016111da565b91505092915050565b6000806020838503121561128a57600080fd5b600083013567ffffffffffffffff8111156112a457600080fd5b6112b0858286016111ef565b92509250509250929050565b6000602082840312156112ce57600080fd5b60006112dc84828501611239565b91505092915050565b60006112f183836116ee565b905092915050565b6000611305838361172b565b905092915050565b61131681611b2f565b82525050565b61132581611b2f565b82525050565b600061133682611a44565b6113408185611a7f565b93508360208202850161135285611a0f565b8060005b8581101561138e578484038952815161136f85826112e5565b945061137a83611a65565b925060208a01995050600181019050611356565b50829750879550505050505092915050565b60006113ab82611a4f565b6113b58185611a90565b9350836020820285016113c785611a1f565b8060005b8581101561140357848403895281516113e485826112f9565b94506113ef83611a72565b925060208a019950506001810190506113cb565b50829750879550505050505092915050565b61141e81611b41565b82525050565b61142d81611b41565b82525050565b600061143f8385611aa1565b935061144c838584611b77565b82840190509392505050565b6000815461146581611bb9565b61146f8186611aa1565b9450600182166000811461148a576001811461149b576114ce565b60ff198316865281860193506114ce565b6114a485611a2f565b60005b838110156114c6578154818901526001820191506020810190506114a7565b838801955050505b50505092915050565b60006114e38385611ace565b93506114f0838584611b77565b82840190509392505050565b600061150782611a5a565b6115118185611aac565b9350611521818560208601611b86565b61152a81611c92565b840191505092915050565b600061154082611a5a565b61154a8185611abd565b935061155a818560208601611b86565b61156381611c92565b840191505092915050565b600061157b601683611abd565b91507f45565549442063616e6e6f7420626520656d7074792e000000000000000000006000830152602082019050919050565b60006115bb600e83611abd565b91507f416c726561647920766f7465642e0000000000000000000000000000000000006000830152602082019050919050565b60006115fb601483611abd565b91507f43616e646964617465206e6f7420666f756e642e0000000000000000000000006000830152602082019050919050565b600061163b601b83611abd565b91507f4164647265737320616c726561647920726567697374657265642e00000000006000830152602082019050919050565b600061167b601983611abd565b91507f455655494420616c726561647920726567697374657265642e000000000000006000830152602082019050919050565b60006116bb601083611abd565b91507f566f746572206e6f7420666f756e642e000000000000000000000000000000006000830152602082019050919050565b6000604083016000830151848203600086015261170b82826114fc565b915050602083015161172060208601826117ff565b508091505092915050565b6000608083016000830151611743600086018261130d565b5060208301516117566020860182611415565b506040830151848203604086015261176e82826114fc565b9150506060830151848203606086015261178882826114fc565b9150508091505092915050565b60006080830160008301516117ad600086018261130d565b5060208301516117c06020860182611415565b50604083015184820360408601526117d882826114fc565b915050606083015184820360608601526117f282826114fc565b9150508091505092915050565b61180881611b6d565b82525050565b61181781611b6d565b82525050565b600061182a828486611433565b91508190509392505050565b60006118428284611458565b915081905092915050565b600061185a8284866114d7565b91508190509392505050565b600060808201905061187b600083018761131c565b6118886020830186611424565b818103604083015261189a8185611535565b905081810360608301526118ae8184611535565b905095945050505050565b600060208201905081810360008301526118d3818461132b565b905092915050565b600060208201905081810360008301526118f581846113a0565b905092915050565b600060408201905081810360008301526119178185611535565b9050611926602083018461180e565b9392505050565b600060208201905081810360008301526119468161156e565b9050919050565b60006020820190508181036000830152611966816115ae565b9050919050565b60006020820190508181036000830152611986816115ee565b9050919050565b600060208201905081810360008301526119a68161162e565b9050919050565b600060208201905081810360008301526119c68161166e565b9050919050565b600060208201905081810360008301526119e6816116ae565b9050919050565b60006020820190508181036000830152611a078184611795565b905092915050565b6000819050602082019050919050565b6000819050602082019050919050565b60008190508160005260206000209050919050565b600081519050919050565b600081519050919050565b600081519050919050565b6000602082019050919050565b6000602082019050919050565b600082825260208201905092915050565b600082825260208201905092915050565b600081905092915050565b600082825260208201905092915050565b600082825260208201905092915050565b600081905092915050565b6000611ae482611b6d565b9150611aef83611b6d565b9250827fffffffffffffffffffffffffffffffffffffffffffffffffffffffffffffffff03821115611b2457611b23611c34565b5b828201905092915050565b6000611b3a82611b4d565b9050919050565b60008115159050919050565b600073ffffffffffffffffffffffffffffffffffffffff82169050919050565b6000819050919050565b82818337600083830152505050565b60005b83811015611ba4578082015181840152602081019050611b89565b83811115611bb3576000848401525b50505050565b60006002820490506001821680611bd157607f821691505b60208210811415611be557611be4611c63565b5b50919050565b6000611bf682611b6d565b91507fffffffffffffffffffffffffffffffffffffffffffffffffffffffffffffffff821415611c2957611c28611c34565b5b600182019050919050565b7f4e487b7100000000000000000000000000000000000000000000000000000000600052601160045260246000fd5b7f4e487b7100000000000000000000000000000000000000000000000000000000600052602260045260246000fd5b6000601f19601f8301169050919050565b611cac81611b2f565b8114611cb757600080fd5b50565b611cc381611b6d565b8114611cce57600080fd5b5056fea2646970667358221220e7fd49b4611a825f3fd9286b6f72af55ce178d120bca252e088c3eb82636604b64736f6c63430008000033",
  "immutableReferences": {},
  "source": "// SPDX-License-Identifier: MIT\npragma solidity >=0.4.22 <0.9.0;\n\ncontract Voting {\n    struct Voter {\n        address voterAddress;\n        bool voted;\n        string evuid;\n        string candidateName;\n    }\n\n    Voter[] public voters;\n\n    struct Candidate {\n        string name;\n        uint voteCount;\n    }\n\n    Candidate[] public candidates;\n\n    constructor() {\n        string[5] memory candidatesNames = [\n            \"John Doe\",\n            \"Jane Smith\",\n            \"Michael Johnson\",\n            \"Emily Wilson\",\n            \"David Brown\"\n        ];\n        for (uint256 i = 0; i < candidatesNames.length; i++) {\n            candidates.push(\n                Candidate({name: candidatesNames[i], voteCount: 0})\n            );\n        }\n    }\n\n    mapping(string => bool) private registeredEvuids;\n    mapping(address => bool) private registeredAddresses;\n\n    function registerVoter(string calldata evuid) public {\n        require(bytes(evuid).length > 0, \"EVUID cannot be empty.\");\n        require(!registeredEvuids[evuid], \"EVUID already registered.\");\n        require(\n            !registeredAddresses[msg.sender],\n            \"Address already registered.\"\n        );\n\n        registeredEvuids[evuid] = true;\n        registeredAddresses[msg.sender] = true;\n\n        voters.push(\n            Voter({\n                voterAddress: msg.sender,\n                voted: false,\n                evuid: evuid,\n                candidateName: \"\"\n            })\n        );\n    }\n\n    function getVoterByAddress(\n        address _voterAddress\n    ) public view returns (Voter memory) {\n        for (uint i = 0; i < voters.length; i++) {\n            if (voters[i].voterAddress == _voterAddress) {\n                return voters[i];\n            }\n        }\n        revert(\"Voter not found.\");\n    }\n\n    function voteForCandidate(string calldata candidate) public {\n        Voter memory sender = getVoterByAddress(msg.sender);\n\n        require(sender.voterAddress != address(0), \"Voter not found.\");\n        require(!sender.voted, \"Already voted.\");\n\n        for (uint i = 0; i < voters.length; i++) {\n            if (voters[i].voterAddress == msg.sender) {\n                voters[i].voted = true;\n                voters[i].candidateName = candidate;\n            }\n        }\n\n        for (uint i = 0; i < candidates.length; i++) {\n            if (\n                keccak256(bytes(candidates[i].name)) ==\n                keccak256(bytes(candidate))\n            ) {\n                candidates[i].voteCount += 1;\n                return;\n            }\n        }\n\n        revert(\"Candidate not found.\");\n    }\n\n    function getCandidates() public view returns (Candidate[] memory) {\n        return candidates;\n    }\n\n    function getVoters() public view returns (Voter[] memory) {\n        return voters;\n    }\n}\n",
  "sourcePath": "/Users/andrii/Documents/GitHub/voting-smartcontract/contracts/Voting.sol",
  "compiler": {
    "name": "solc",
    "version": "0.8.0+commit.c7dfd78e.Emscripten.clang"
  },
  "schemaVersion": "3.4.14",
  "updatedAt": "2023-07-17T08:57:41.474Z",
  "networkType": "ethereum",
  "devdoc": {
    "kind": "dev",
    "methods": {},
    "version": 1
  },
  "userdoc": {
    "kind": "user",
    "methods": {},
    "version": 1
  }
}